012024053101801239311TP236318000292   000000001000+014        00005755100+0000005755100+000000000000000+190000001093500+0000006848600+01   000000000I
012024053101801239311TP236318900002   000000001000+014        00000000000+0000000000000+000000000000000+190000000000000+0000000000000+01   000000000I
0220240531018012393113022I                                      THO       0.0                 0000000000000+0000000000000+1  100000               0000000000006848600+00000000000000000+               303886              
012024053101801239312TP236319002128   000000001000+014        00003019200+0000003019200+000000000000000+190000000573700+0000003592900+01   000000000I
012024053101801239312TP236319002128   000000001000+014        00003019200+0000003019200+000000000000000+190000000573700+0000003592900+01   000000000I
012024053101801239312TP236319900002   000000001000+014        00000000000+0000000000000+000000000000000+190000000000000+0000000000000+01   000000000I
0220240531018012393123022I                                      THO       0.0                 0000000000000+0000000000000+1  100000               0000000000007185800+00000000000000000+               303885              
012024053101801239313TP236320003152   000000001000+014        00001852400+0000001852400+000000000000000+190000000351900+0000002204300+01   000000000I
012024053101801239313TP236320002900   000000001000+014        00004098500+0000004098500+000000000000000+190000000778700+0000004877200+01   000000000I
012024053101801239313TP236320000428   000000001000+014        00004752100+0000004752100+000000000000000+190000000902900+0000005655000+01   000000000I
012024053101801239313TP236320900002   000000001000+014        00000000000+0000000000000+000000000000000+190000000000000+0000000000000+01   000000000I
0220240531018012393133027I                                      THO       0.0                 0000000000000+0000000000000+1  100000               0000000000012736500+00000000000000000+               303884              
012024053101801239314TP236321001891   000000001000+014        00008636300+0000008636300+000000000000000+190000001640900+0000010277200+01   000000000I
012024053101801239314TP236321001890   000000001000+014        00008132100+0000008132100+000000000000000+190000001545100+0000009677200+01   000000000I
012024053101801239314TP236321900002   000000001000+014        00000000000+0000000000000+000000000000000+190000000000000+0000000000000+01   000000000I
0220240531018012393143022I                                      THO       0.0                 0000000000000+0000000000000+1  100000               0000000000019954400+00000000000000000+               303883              
012024053101801239315TP236322000324   000000001000+014        00002206300+0000002206300+000000000000000+190000000419200+0000002625500+01   000000000I
012024053101801239315TP236322000324   000000001000+014        00002206300+0000002206300+000000000000000+190000000419200+0000002625500+01   000000000I
012024053101801239315TP236322002150   000000001000+014        00005755100+0000005755100+000000000000000+190000001093500+0000006848600+01   000000000I
012024053101801239315TP236322000414   000000001000+014        00001649400+0000001649400+000000000000000+190000000313400+0000001962800+01   000000000I
012024053101801239315TP236322000046   000000001000+014        00006079600+0000006079600+000000000000000+190000001155100+0000007234700+01   000000000I
012024053101801239315TP236322000280   000000001000+014        00005454400+0000005454400+000000000000000+190000001036300+0000006490700+01   000000000I
012024053101801239315TP236322900002   000000001000+014        00000000000+0000000000000+000000000000000+190000000000000+0000000000000+01   000000000I
0220240531018012393153027I                                      THO       0.0                 0000000000000+0000000000000+1  100000               0000000000027787800+00000000000000000+               303882              
012024053101801239316TP236323000429   000000001000+014        00005220300+0000005220300+000000000000000+190000000991800+0000006212100+01   000000000I
012024053101801239316TP236323002150   000000001000+014        00005755100+0000005755100+000000000000000+190000001093500+0000006848600+01   000000000I
012024053101801239316TP236323900002   000000001000+014        00000000000+0000000000000+000000000000000+190000000000000+0000000000000+01   000000000I
0220240531018012393163022I                                      THO       0.0                 0000000000000+0000000000000+1  100000               0000000000013060700+00000000000000000+               303880              
012024053101801239317TP236324001638   000000001000+014        00004818700+0000004818700+000000000000000+190000000915600+0000005734300+01   000000000I
012024053101801239317TP236324001499   000000001000+014        00005220300+0000005220300+000000000000000+190000000991800+0000006212100+01   000000000I
012024053101801239317TP236324900002   000000001000+014        00000000000+0000000000000+000000000000000+190000000000000+0000000000000+01   000000000I
0220240531018012393173022I                                      THO       0.0                 0000000000000+0000000000000+1  100000               0000000000011946400+00000000000000000+               303879              
012024053101801239318TP236325000230   000000001000+014        00004530600+0000004530600+000000000000000+190000000860800+0000005391400+01   000000000I
012024053101801239318TP236325000414   000000001000+014        00001649400+0000001649400+000000000000000+190000000313400+0000001962800+01   000000000I
012024053101801239318TP236325900002   000000001000+014        00000000000+0000000000000+000000000000000+190000000000000+0000000000000+01   000000000I
0220240531018012393183027I                                      THO       0.0                 0000000000000+0000000000000+1  100000               0000000000007354200+00000000000000000+               303878              
012024053101801239319TP236326001229   000000001000+014        00004386600+0000004386600+000000000000000+190000000833400+0000005220000+01   000000000I
012024053101801239319TP236326001957   000000001000+014        00004908200+0000004908200+000000000000000+190000000932500+0000005840700+01   000000000I
012024053101801239319TP236326000806   000000001000+014        00003882400+0000003882400+000000000000000+190000000737600+0000004620000+01   000000000I
012024053101801239319TP236326900002   000000001000+014        00000000000+0000000000000+000000000000000+190000000000000+0000000000000+01   000000000I
0220240531018012393193012I                                      THO       0.0                 0000000000000+0000000000000+1  100000               0000000000015680700+00000000000000000+               303877              
012024053101801239320TP236327001943   000000001000+014        00006468800+0000006468800+000000000000000+190000001229100+0000007697900+01   000000000I
012024053101801239320TP236327900002   000000001000+014        00000000000+0000000000000+000000000000000+190000000000000+0000000000000+01   000000000I
0220240531018012393203013I                                      THO       0.0                 0000000000000+0000000000000+1  100000               0000000000007697900+00000000000000000+               303876              
012024053101801239321TP236328003152   000000001000+014        00002049400+0000002049400+000000000000000+190000000389400+0000002438800+01   000000000I
012024053101801239321TP236328000324   000000001000+014        00002363900+0000002363900+000000000000000+190000000449100+0000002813000+01   000000000I
012024053101801239321TP236328000324   000000001000+014        00002333100+0000002333100+000000000000000+190000000443300+0000002776400+01   000000000I
012024053101801239321TP236328900002   000000001000+014        00000000000+0000000000000+000000000000000+190000000000000+0000000000000+01   000000000I
0220240531018012393213013I                                      THO       0.0                 0000000000000+0000000000000+1  100000               0000000000008028200+00000000000000000+               303875              
